:020000040000FA
:100000002B2801308E008D018C0100008C0B0528FF
:100010008D0B04288E0B032808008617850101200C
:1000200001200120093085000120012085030120E5
:10003000012003010502031D162809308500012057
:10004000012085030120012003010502031D212851
:1000500085018613080083168601850183128501B8
:10006000860185018601061586150120861101206D
:100070008615012086110120861501208611012098
:10008000861501208611860106150616012001201D
:100090000120012006128601061486160D20861600
:1000A000061401200610012006140120061001206C
:1000B00006140120061001200614012006108601F6
:1000C00086168614012001200120012006128601D7
:0800D000861506150D283128E4
:02400E00F23F7F
:00000001FF
